:400000000010002011000000190400001904000080B500AF00F00AFA80B500AF184B184A12688021C9020A431A60182001F06EFD134B134A126813490A401A60124B134A74
:400040001A60134B20221A60124B10221A60124B30221A60114B802212061A60084B00221A600F4B0F4A1A600F4B104A1A60104B104A1A60104B00221A60C046BD4680BD74
:4000800000010B40FFFFFBFF04010B400600008014020240180202402002024008010B4000000240FE00008040000240FE0000C080000240010000800C020B4080B582B0B7
:4000C00000AF72B6FB1D00221A7022E0FB1D1A7813005B009B185B003A4A9B183B603B681A78597809020A43997809040A43DB781B06134318003B681A795B791B02134343
:400100009BB2190000F0F6F8FB1D1A78FB1D01321A70FB1D1B78012BD8D92B4A2B4B1100180000F0F7F82A4BCC2292011A60294BEE2212021A60284B992212041A60274BCF
:40014000B02212041A60264B992212041A60254B992212041A60244B802292051A60234A224B1B78DBB23C218B43DBB214210B43DBB213701E4A1E4B1B78DBB216210B43C9
:40018000DBB213701B4B0C221A601B4BD82212011A601A4B3E221A60194B3E221A60194BD82212011A60184B04221A60174B04221A60FFF731FF00F0EFF8C046BD4602B00F
:4001C00080BDC046B8240000E0240000C4240000000001400C00014000500F4008500F4010500F4030500F4038500F4001700F4000700F4000000440080004400001044077
:400200001801044008030440000404401804044010B5064C2378002B07D1054B002B02D0044800E000BF0123237010BD8001002000000000B4240000084B10B5002B03D06A
:400240000749084800E000BF07480368002B00D110BD064B002BFBD09847F9E70000000084010020B4240000C80000200000000080B500AF62B601F06BFB00F0FBF900F02A
:40028000BFFD00F085FA031E03D100F0F7FE00F053FA00F001F8F4E780B500AF002001F03BF803001A00104B1A800F4B1B880F4A934202D10C4B00221A800B4B1A880C4B9E
:4002C0001B889A420DD0084B1A88094B1A80064B1B88002B05D0044B1B885B02180001F069FBC046BD4680BDD6010020FFFF0000D801002080B582B000AF786039603A68B2
:400300007B680021180002F0CDF8C046BD4602B080BDC04680B586B000AF7860396000233B6100237B612FE07B699B007A68D3181B68BB600F23FB18BA681A70BB68FF2275
:400340009343BB6018E03B695B003A68D3181B781A00BB68D31819003B695B003A68D3185B780B703B6901333B610F23FB181A780F23FB18013A1A700F23FB181B78002B02
:40038000E1D17B6901337B617B69062BCCD9C046BD4606B080BDC04680B500AF012000F003F8C046BD4680BD80B584B000AF0200FB1D1A70154B1B68FB60FB1D1B78002BD5
:4003C00005D0FB68802212061343FB6003E0FB685B005B08FB600D4BFA681A600C4B1B68FB60FB1D1B78002B05D0FB68802292041343FB6003E0FB68064A1340FB60044B08
:40040000FA681A60C046BD4604B080BD80031A4008010B40FFFFFFFD80B500AF02F016F803001B680C2B00D1FEE7FEE780B586B000AF224B7B61224B3B61204B7B6135E0B7
:400440003B691B68FB603B695B68BB603B699B683B6000237B600CE0FB681A68BB681A60BB680433BB60FB680433FB607B6804337B607A683B689A42EED13B69DB683B60C9
:4004800000237B6008E0BB6800221A60BB680433BB607B6804337B607A683B689A42F2D13B6910333B617B69013B7B617B69002BC6D101F0D1FFFFF7DBFEFEE7010000006E
:4004C0005426000080B582B000AF00237B600FE07B68032B04D8104B7A689200D35800E00E4B0F4A796889008B507B6801337B607B682F2BECD9FFF7E1FD0A4B00221A6008
:400500008023DB058022D205126801210A431A60C046BD4602B080BD000000001904000000000020C000002080B582B000AF00237B6007E07B680021180000F0BDFB7B68A5
:4005400001337B607B68042BF4D900F009F8002000F018FB00F038F9C046BD4602B080BD80B582B000AF254B1B68DAB2244B1A70234B1B787B607B680F2293437B60214BC5
:400580001B78DBB21A000F2313407A6813437B607B68F02293437B601A4B1B78DBB21A00F02313407A6813437B60144B7A681A60154B164A1A60164B164A1A60164B1B6897
:4005C0007B607B68154A13407B607B68C022D20013437B60104B7A681A600F2001F01CFC0F4B19000F2001F087FB03210F2001F0A9FBC046BD4602B080BDC04600FF0840B7
:40060000DC01002062F1FF0F080008400002000104000840C008A00110000140FFF0FFFFFD14000080B582B000AF01F045FA01F00BFA0021002001F015FA0021002001F056
:4006400049FA01F02BFA01F0F1F9084B1B687B607B68074A13437B60044B7A681A600F2001F0C4FBC046BD4602B080BD040008400010088080B500AF0C4B1B78002B04D1FC
:40068000FFF752FF094B01221A70FFF7CBFF00F0A1FF074B01221A70064B064A12688021C9030A431A60C046BD4680BDAA0100209C0100200400084080B584B000AF020020
:4006C000FB1D1A70FB1D1A78FB1D01321A70FB1D1B78052B0CD0FB1D1A78094B1100180000F06AFA0300FB60FB68002BEAD000E0C046FB1D1B781800BD4604B080BDC0465E
:40070000CC00002080B582B000AF7860084B00221A707B68DAB2074B1A70054B81221A707B68180000F058F9C046BD4602B080BD9E0100209F01002080B500AF124B002202
:400740001A70124BFF221A70104B1B78DBB21800FFF7B2FF03001A000C4B1A700B4B1B78DBB2042B0DD8084B1B78DBB201221343DAB2054B1A70054B1B78DBB2180000F05B
:400780002BF9C046BD4680BD9E0100209F01002080B500AF044B1B78DBB21A00012313401800BD4680BDC0469E01002080B582B000AF7860034B7A685200D35A1800BD4697
:4007C00002B080BDA001002080B582B000AF00237B6006E07B68180000F070F87B6801337B607B68042BF5D9C046BD4602B080BD90B587B000AF78602C4A7B68D3181B7858
:400800007B612B4A7B68D3181B781322BA18191C0B1CDB185B181370254A7B68D3181A781223FB1892001A701123FC1801F036FB030023701F4B7A699200D3581B68FB609F
:400840001223FB181B780F229A401300DA43FB681340FB601223FB181B7804229A401300FA681343FB60144B7A699200D358124A796989008A5812681321791809780720C1
:4008800088400100C9430A401A600A4B7A699200D358FA681A601123FB181B78180001F001FBC046BD4607B090BDC046202500003C2500004C2500006025000090B589B0C2
:4008C00000AF78603E4A7B68D3181B787B613D4A7B68D3181A781323FB1892001A70394A7B68D3181B781222BA18191C0B1CDB185B1813700023FB61334A7B68D3181B78D4
:40090000BB61324B7A699200D358304A796989008A5812681321791809780F2088400100C9430A401A60BB69022B01D10023BB61BB69012B01D00623FB611123FC1801F0EE
:40094000ADFA03002370224B7A699200D3581B68FB601223FB181B7807229A401300DA43FB681340FB601223FB181B78FA699A401300FA681343FB60154B7A699200D358F2
:40098000FA681A601123FB181B78180001F08AFA104B7A699200D3580E4A796989008A5812680848796841180978080001218140C9430A401A60C046BD4609B090BDC046FF
:4009C000202500003C250000F80100204C250000602500007425000090B587B000AF78601723FB183D497A688A1812781A701723FB181A783A4B9200D3583B61394A7B6818
:400A0000D3181B789BB2013B9BB20021180001F029F8354A7B68D3181B789BB2013B9BB20021180001F056F8304B1B78002B0FD00F2001F0F1F92E4B1B68FB60FB684022AB
:400A40001343FB602A4BFA681A600F2001F0CEF90F2001F0E1F9274B1B68FB60FB68264A1340FB60254A7B68D3181B781900244A7B68D3181B781B040B43FA681343FB608A
:400A80001C4BFA681A601A4B1B68FB60FB681D4A1340FB60FB681C4A1343FB600F2001F0A5F97B681800FFF7A3FE0B23FC1801F0F5F9030023700E4BFA681A60002001F071
:400AC000E3F9124B3A691A600B23FB181B78180001F0E8F9C046BD4607B090BD44250000E400002008020020EC0100209D010020040008400800084000FF80FF0002002037
:400B0000E4010020FF1FDFFF200020000C00084080B584B000AF7860144B1B6899B2144B7A685200D1527B681800FFF7C7FE0F2001F072F90F4B1B68FB60FB680E4A1340C6
:400B4000FB60FB68A02212021343FB60094BFA681A600A4B094A126809490A401A600F2001F044F9C046BD4604B080BD0C000840A001002004000840FF1FDFFF08000840C4
:400B800000FF80FF80B584B000AF78607B68032213407B60074B1B68FB607B685B02FA681343FB60034BFA681A60C046BD4604B080BDC0460400084080B584B000AF7860A8
:400BC00039603B68DB08FB603B680722134001229A400B23FB181A707A68FB68D3181B780B22BA1812781340DBB2002B01D0012300E000231800BD4604B080BD80B586B0CE
:400C000000AFF860B9607A60BB68DB087B61BB680722134001229A401323FB181A707B68002B0DD0FA687B69D318F9687A698A1811781322BA1812780A43D2B21A700EE004
:400C4000FA687B69D318F9687A698A181278132179180978C943C9B20A40D2B21A70C046BD4606B080BDC04680B584B000AF78600023BB600023FB6015E07B681800FFF71A
:400C800041FDC046FFF784FD0300012BFAD07B681800FFF78BFD03001A00BB689B18BB60FB680133FB60FB68002BE6D0BB689BB21800BD4604B080BD80B582B000AF786059
:400CC00039603B68D9B2044A7B68D3180A1C1A70C046BD4602B080BDF801002080B588B000AF786039600023FB613AE000237B61204AFB69D3181B783B611F4AFB69D3188B
:400D00001B78BB61BA693B69D318FB600FE03A68BB69D3181B781A007B699A4204D93A68BB69D3181B787B61BB690133BB61BA69FB689A42EBD3104AFB69D3181B78BB6101
:400D400008E03A68BB69D3187A69D2B21A70BB690133BB61BA69FB689A42F2D3FB690133FB61FA697B689A42C0D3C046BD4608B080BDC0468C2500008825000080B582B0DC
:400D800000AF78600E4B7A685200D15A0D4B7A685200D1520C4A7B68D31800221A700B4A7B68D31800221A70054B7A685200D15A074B7A685200D152C046BD4602B080BD56
:400DC000A0010020AC010020B8010020C00100201C02002080B582B000AF78607B681800FFF790FCC046FFF7D3FC031EFBD17B681800FFF7C3FFC046BD4602B080BDC04699
:400E000080B582B000AF00237B6006E07B681800FFF7E0FF7B6801337B607B68042BF5D9C046BD4602B080BD90B587B000AF78600F23FB187D497A688A1812781A700F2346
:400E4000FB181A780E23FB1879498A5C1A701023FB18784A796849008A5A1A80764B1B78002B15D0754B7A685200D25A1023FC181023FB181B881100180000F0FBFA0300E2
:400E800023806E4B7A685200102179180988D1527B68D9B2674A6A4B180001F0C7F8694B7A685200D35A1022BA1812889A4212D3654A7B68D31800221A70624B7A68520012
:400EC000D25A1223FB181021791809888A1A1A8001237B610CE05B4B7A685200D15A1223FB181022BA1812888A1A1A8000237B617B69002B2AD10F23FB181B78534AD35C2B
:400F00009BB21222BA1812889A421FD94E4A7B68D3181A784E497B68CB181B789A4209D37B681800FFF72AFF474A7B68D31800221A7051E0444A7B68D3181B780133D9B24C
:400F4000414A7B68D3180A1C1A7045E00E23FB181B789BB21222BA1812889A420DD90F23FB181B78394AD35C9BB21222BA1812889A4231D27B69002B2ED1324B7A685200A8
:400F8000D35A1B02BB60334A7B68D3181B781A00BB681343BB601023FB181B88BA68D318BB60284B7A685200D35A1A00BB689B1ABB60BB681B0A99B2224B7A685200D152F7
:400FC000BB68D9B2234A7B68D3180A1C1A701E4A7B68D31800221A700E23FB181B789BB21222BA1812889A4217D97B69002B14D01223FB181B88FF2B05D9174A7B68D318D1
:40100000FF221A700EE01223FB181B88D9B2124A7B68D3180A1C1A7004E00F4A7B68D31800221A70C046BD4607B090BD4425000028020020A0010020ED0000201C02002044
:4010400044020020AC0100202C02002014020020E8000020B8010020C001002080B582B000AF78607B68180000F03CFB7B681800FFF7DAFEC046BD4602B080BD80B582B0BF
:4010800000AF00237B6011E07A680C4B11001800FFF792FD03003B603B68002B03D07B681800FFF7DBFF7B6801337B607B68042BEAD9C046BD4602B080BDC046CC000020F0
:4010C00090B585B000AF040008001100FB1D221C1A70BB1D021C1A707B1D0A1C1A700E23FB18FF221A700D23FB1800221A70FB1D1A78204BD318BB600F23FB1800221A7018
:401100002AE00F23FB181B78BA68D3181B787A1D12789A4219D20F23FB181B78BA68D3181B780D22BA1812789A420ED20E23FB180F22BA1812781A700F23FB181B78BA6831
:40114000D2180D23FB1812781A700F23FB181A780F23FB1801321A700F23FA18BB1D12781B789A42CDD30E23FB181B781800BD4605B090BDC0010020B0B588B000AF05007A
:401180000C0010001900FB1D2A1C1A70BB1D221C1A707B1D021C1A70BB1C0A1C1A80BB1D1A785B4BD318BB611F23FB1800221A70FB1D1B78002B05D01F23FB18FA1D1278E2
:4011C000013A1A701723FB18FA1D127801321A70FB1D1B78BA69D3181A784E4B5A70FB1D1B78002B0BD14B4B00221A701723FB181B78BA69D3181A78464B9A7022E0FB1DA8
:401200001A787B1D1B78013B9A420BD11F23FB181B78BA69D3181A783E4B1A703D4B00229A700FE01F23FB181B78BA69D3181A78384B1A701723FB181B78BA69D3181A78AA
:40124000344B9A70334B1B783022BA1812789A4209D2304B1A783023FB181B78D31ADAB22C4B1A7002E02B4B00221A70294B5A783023FB181B78D31ADAB2264B5A70254B88
:401280009B783022BA1812789A4209D2214B9A783023FB181B78D31ADAB21E4B9A7002E01C4B00229A701B4B9B781A00194B1B78D31A3B61174B1B781A00164B5B78D3189D
:4012C000144A92789B18FB603B691B02F968180000F0D0FF03001A00FB1D1B781B02D318FB60BB1C00229B5E1A00FB685343FB60FB68FE22D201944663441A0C0B23FB18B6
:401300001A700B23FB181B781800BD4608B0B0BDC0010020D0010020B0B586B002AF78600D23FB184F497A688A1812781A700C23FB184D497A688A1812781A700B23FB18F5
:4013400000221A700A23FB1805221A70474A7B68D3181A780923FC180A23FB1819780B23FB181B781800FFF7ABFE030023700923FB181B78FF2B5DD0FE235D013C4A7B689C
:40138000D3181B780A22BA1814780B22BA1811780922BA18107800932B002200FFF7ECFE03001A000E23FB181A800C23FB181B781F2213404FD00823FB180D22BA1812780C
:4013C00001321A700D23FB181B78264AD35C002B0FD10823FB181B780E22BA181288D1B2204AD1540D23FB181B781E4A0121D15431E00C23FB181B78102213402BD008231B
:40140000FB181B78174AD35C9AB20E23FC180E23FB181B881100180000F04AF8030023800823FB181B780E22BA181288D1B20D4AD15410E00E23FB18012252421A800C23DD
:40144000FB181B781F22134005D00D23FB181B78044A0021D1540E23FB181B881800BD4604B0B0BDF8000020F4000020100200202802002080B584B000AF0200BB1D1A809C
:401480003B1D0A1C1A80BB1D1A883B1D1B88D318FB603B1D1B885B00FA68D318FB60FB689B08FB60FB689BB21800BD4604B080BD80B582B000AF0200BB1D1A803B1D0A1C36
:4014C0001A80BA1D3B1D12881B889A4205D9BB1D1A88BB1D013A1A800AE0BA1D3B1D12881B889A4204D2BB1D1A88BB1D01321A80BB1D1B881800BD4602B080BD80B500AF75
:401500000F2000F089FC2D4B01221A602C4B1B78DBB21800FFF7FCFA2A4B1B78DBB25BB2002B08DA274B1B78DBB201229343DAB2244B1A703CE0224B1B78DBB21800FFF7E1
:40154000BBF803001A001E4B1A701D4B1B78DBB2042B06D81A4B1B78DBB21800FFF73CFA26E0184B1B78DBB201229343DAB2154B1A70144B1B78DBB21A004023134017D01C
:40158000114B00221A700FE00F4B1B781A000E4B1B7819000D4B595C0D4B99540A4B1B780133DAB2084B1A70074B1B78002BEBD00F2000F01BFCC046BD4680BD14000840AE
:4015C0009F0100209E010020D3010020F4010020CC00002080B582B000AF384B05221A70364B01225A70354B05229A70334B1822DA80324B324A9A80304B324A9A6000F008
:40160000EBF800233B6007E02F4B3A6892002F49D1503B6801333B60284B5B781A003B689A42F1D800237B600CE0294A7B68D31804221A70274A7B68D31802221A707B6816
:4016400001337B607B68042BEFD900F0D3F8224A1A4B1100180000F049FC204B19000120FFF73CFB154B180000F051FC1C4B01221A70194A114B1100180000F037FC174B8F
:4016800019000120FFF72AFB0C4B180000F060FC0A4B180000F0C8F800237B6006E07B68180000F01FF87B6801337B607B68042BF5D9C046BD4602B080BDC04644020020E1
:4016C00066020000A4250000E40000200000FF0FEC010020080200209A0D0000000200209D01002090B587B002AF7860344A7B68D3181B78FB607B68D9B2FB68DAB2314CD0
:401700003148324B0093230000F00EFD0B23FB182C49FA688A1812781A702C4AFB68D31819782B4AFB68D3180A1C1A700B23FB181B78DB2B0AD80B23FB181B78DB08D9B26E
:40174000244AFB68D3180A1C1A7034E00B23FB181B78EC2B0AD80B23FB181B781B09D9B21C4AFB68D3180A1C1A7024E00B23FB181B78F42B0AD80B23FB181B785B09D9B299
:40178000144AFB68D3180A1C1A7014E00B23FB181B78F92B0AD80B23FB181B789B09D9B20C4AFB68D3180A1C1A7004E0094AFB68D31800221A70C046BD4605B090BDC04666
:4017C00044250000100200204402002028020020140200201802002080B500AF044B044A126840218A431A60C046BD4680BDC0460400084080B582B000AF094B1B687B602B
:401800007B68084A13407B607B688022920013437B60034B7A681A60C046BD4602B080BD08000840FFFCFFFC80B584B000AF78600023FB6019E01C4AFB68D3181B785B0804
:40184000D9B21A4AFB68D3180A1C1A70164AFB68D3181B7801335B08D9B2134AFB68D3180A1C1A70FB680133FB607B681B781A00FB689A42DFD80F2000F0CEFA0C4B1B6884
:40188000BB60BB680B4A1340BB60BB680A4A1343BB60074BBA681A600F2000F0A7FAC046BD4604B080BDC04600020020E401002008000840FFFCFFFC0002000180B500AF3D
:4018C000104B8022D2041A600E4B0E4A12681A60002000F04FF80B4B0A4A12681A600A4B0C221A60002000F093F8084B31221A60074B180000F04EF8012000F05BF8C0463F
:40190000BD4680BD000105402401054028010540FFFF000090B583B000AFFC1D00F0BEFA03002370094B094A126801210A431A60FB1D1B78180000F0B5FA1821012000F017
:4019400049F8C046BD4603B090BDC0460000054080B500AF064B1B78002B04D1FFF7AEFF034B01221A70FFF7D5FFC046BD4680BDD401002080B582B000AF7860044B7A6848
:401980001204120C1A60C046BD4602B080BDC0460801054080B582B000AF7860044B7A681204120C1A60C046BD4602B080BDC0461401054080B582B000AF7860044B7A68E9
:4019C0001204120C1A60C046BD4602B080BDC0460C01054090B585B000AF786039600F23FC1800F05BFA03002370084B79683A6891400A001A600F23FB181B78180000F023
:401A000051FAC046BD4605B090BDC0460800054080B582B000AF7860034B7A681A60C046BD4602B080BDC0463801054080B500AF044B044A1268802109060A431A60C04671
:401A4000BD4680BD0000024080B500AF044B044A1268520052081A60C046BD4680BDC0460000024080B584B000AF0200BB1D1A807B1D0A1C1A70084B1B681B0C1B04FB60EA
:401A8000BB1D1A88FB681343BB60034BBA681A60C046BD4604B080BD0000024080B500AF044B044A1268802109060A431A60C046BD4680BD4000024080B500AF044B044AF7
:401AC0001268520052081A60C046BD4680BDC0464000024080B584B000AF0200BB1D1A807B1D0A1C1A70084B1B681B0C1B04FB60BB1D1A88FB681343BB60034BBA681A60F5
:401B0000C046BD4604B080BD4000024090B585B000AF78600C23FC1800F0C0F9030023707B68022B00D8B3E07B68302B00D9AFE05E4B1B78DBB21A007B689A420AD35C4A60
:401B40000F23FB1812781A705A4A0E23FB1812781A703FE0584B1B78DBB21A007B689A420AD3564A0F23FB1812781A70544A0E23FB1812781A702DE0524B1B78DBB21A00A5
:401B80007B689A420AD3504A0F23FB1812781A704E4A0E23FB1812781A701BE04C4B1B78DBB21A007B689A420AD34A4A0F23FB1812781A70484A0E23FB1812781A7009E07E
:401BC000464A0F23FB1812781A70454A0E23FB1812781A707B68DA1E0B23FB1841498A5C1A700B23FB181B782F2B0DD97B682A2B0AD93D4B19221A60052000F045F90D2310
:401C0000FB1819221A7007E0374B1B68DAB20D23FB183F210A401A700B23FA180D23FB1812781B789A4208D22F4B7A68033A2D498A5C1A60052000F027F97B68284A9A18DC
:401C40000A23FB1812781A70284B0A22BA1812781A60274B0F22BA1812781A60254B0E22BA1812781A60052000F0F8F80B23FA180D23FB1812781B789A420CD91A4B7A68FF
:401C8000033A18498A5C1A60052000F0FDF802E0002000F0D7F80C23FB181B78180000F001F9C046BD4605B090BDC046C0F1FF0FC1F1FF0FC2F1FF0FC3F1FF0FC4F1FF0FAE
:401CC000C5F1FF0FC6F1FF0FC7F1FF0FC8F1FF0FC9F1FF0FCAF1FF0FCBF1FF0FCCF1FF0FCDF1FF0F002600002CFF0B4028FF0B401CFF0B4020FF0B4080B584B000AF0200E4
:401D00003960FB1D1A7080239B05FB60FB1D1B781F2B02D9002000F095F8FB1D1B7810339B00FA68D3181B68BB60FB1D1B7810339B00FA68D3183A681A60BB681800BD46B9
:401D400004B080BD90B587B000AF0200FB1D1A70BB1D0A1C1A70BB1D1B78032B02D9002000F070F8FB1D1B781F2B02D9002000F069F8FB1D1B7803221340DB0006337B61DB
:401D80001323FC1800F08AF803002370FB1D1B789B08DBB29B00144A944663441B68FB6003227B699A401300DA43FB681340FB60BB1D1A787B699A401300FA681343FB602C
:401DC000FB1D1B789B08DBB29B00074A94466344FA681A601323FB181B78180000F062F8C046BD4607B090BD00E400E080B582B000AF0200FB1D1A70064BFA1D12781F21C4
:401E00000A40012191400A001A60C046BD4602B080BDC04600E100E080B582B000AF0200FB1D1A70064BFA1D12781F210A40012191400A001A60C046BD4602B080BDC04677
:401E400080E100E080B582B000AF0200FB1D1A7001BEC046BD4602B080BDC04680B582B000AF0200BB1D1A80BB1D1B88044A12785343180000F008F8C046BD4602B080BD37
:401E80000C010020000000000230800804D0C0460138FDD1C046C046C0467047EFF3108072B6704780F310887047C046F7B59C180023071C082680250191009223702378AD
:401EC00000982B432370BB689B6C9847019B984202D22378AB432370013E6D08002EEED12378F82B01D9F8232370F7BD70B5051C0E1C00242B789C4208D2AB68221C281CBB
:401F0000311C1B68FFF7D2FF0134F3E770BD38B5051C00242B789C4219D2AA6813681B5DDB080F2B00D90F23D16BD268C95C1155AA68042B04D9936D906B211C012203E0A6
:401F4000936D906B211C002298470134E2E738BDF0B5041C002687B063789E4262D2A3685A6C925D0392002A01D1013203921A6C925D019201992278914251D29A689B69D3
:401F8000515C0F221140B2000492002205910499019D5A50019B5B000293039B019A9B189D423DD2A768E388A0885843FB68595D00F060F93B68595D00F0D2F8059B5843BA
:401FC000194B40005A2802D95B084008FAE7BA6904991B0C1B045350A36882085B6B01215855A368C008DB69029F5A550F22A36849421B6A5855A3685B6A5A55A368986A95
:40200000C1530021D86AC153186B9B68C1535B19197801350A401A703B1C02330293BCE7013699E707B0F0BD0000FFFFF0B585684E002B6B925B9B191C8887B0141B0094DA
:40204000AC6A1A80A45B6B6A0294EC6A5F5CA45B2B6A03946C6B7F00645C5B180494AC680193645C1B780594009CE40FA4460F24251C6744009C3D40AC46E51764196C408D
:402080009C4203D2012B05D0013B00E00133FF273F2B00D89F00019D2B7065460F2D29D0002D24D0BC4225D8059C029F24090094974200D9171C039D954200D2151C009AE4
:4020C000092A01D8141C01343A1C0A2C14D1EA1B934206D9049A92089A42924152429B1A00E001338268D26953543A1C04E0151C644601E0151C00246746836824015B6A68
:402100005F5483689F6ABA53DA6A9B6895530F225B181D782A401A7083689B6859180B781C430C7007B0F0BD70B58068446BC069655C405CFF213F2801D88100C9B246B2D8
:40214000FF24002E01DB4000C4B28D4201D9291C6C08012081439954049B9C5470BD0000002243088B4274D303098B425FD3030A8B4244D3030B8B4228D3030C8B420DD37D
:40218000FF22090212BA030C8B4202D31212090265D0030B8B4219D300E0090AC30B8B4201D3CB03C01A5241830B8B4201D38B03C01A5241430B8B4201D34B03C01A5241DA
:4021C000030B8B4201D30B03C01A5241C30A8B4201D3CB02C01A5241830A8B4201D38B02C01A5241430A8B4201D34B02C01A5241030A8B4201D30B02C01A5241CDD2C309AA
:402200008B4201D3CB01C01A524183098B4201D38B01C01A524143098B4201D34B01C01A524103098B4201D30B01C01A5241C3088B4201D3CB00C01A524183088B4201D302
:402240008B00C01A524143088B4201D34B00C01A5241411A00D20146524110467047FFE701B5002000F0F0F802BDC0460029F7D076E7704703460B437FD4002243088B422D
:4022800074D303098B425FD3030A8B4244D3030B8B4228D3030C8B420DD3FF22090212BA030C8B4202D31212090265D0030B8B4219D300E0090AC30B8B4201D3CB03C01A6B
:4022C0005241830B8B4201D38B03C01A5241430B8B4201D34B03C01A5241030B8B4201D30B03C01A5241C30A8B4201D3CB02C01A5241830A8B4201D38B02C01A5241430A30
:402300008B4201D34B02C01A5241030A8B4201D30B02C01A5241CDD2C3098B4201D3CB01C01A524183098B4201D38B01C01A524143098B4201D34B01C01A524103098B4230
:4023400001D30B01C01A5241C3088B4201D3CB00C01A524183088B4201D38B00C01A524143088B4201D34B00C01A5241411A00D201465241104670475DE0CA0F00D049421F
:40238000031000D34042534000229C4603098B422DD3030A8B4212D3FC22890112BA030A8B420CD3890192118B4208D3890192118B4204D389013AD0921100E08909C3093E
:4023C0008B4201D3CB01C01A524183098B4201D38B01C01A524143098B4201D34B01C01A524103098B4201D30B01C01A5241C3088B4201D3CB00C01A524183088B4201D341
:402400008B00C01A5241D9D243088B4201D34B00C01A5241411A00D20146634652415B10104601D34042002B00D54942704763465B1000D3404201B5002000F005F802BD61
:402440000029F8D016E770477047C046014B18687047C046780100200E4B70B500251E000D4CE41AA410A54204D0AB00F35898470135F8E700F0DCF8084B00251E00084CB9
:40248000E41AA410A54204D0AB00F35898470135F8E770BD3C2600003C2600003C2600004426000003008218934202D019700133FAE770470000000000300F4000040040AC
:4024C0000F40000404300F4002310F4002330F4006400F4002410F4004420F400C430F4038803E4058045F011801E204B401EA01520254028002D480D620E220AA02EA8087
:402500006C4070088010DC031820200161029421A102A801B448B502C608C808D802EC080101010101000000020000000400000008000000100000002000000001020304DF
:402540000500000000000000000000000000014004000140080001400C00014010000140080004400801044008020440080304400804044000000440000104400002044094
:4025800000030440000404400000000005000000C01F00000101010202020204040404040404040400020020E4010020FC000020EC0100200802002044250000E400002092
:4025C000340200203C02002068020020700200205C020020500200207C020020E001002094250000882500008C250000690C0000D9090000AD070000B90B0000FD0B00008E
:40260000030405060708090A0B0C0E0F101112131415161718191B1C1D1E1F2021222325262728292A2B2E2F3031323334354300F8B5C046F8BC08BC9E4670473902000066
:40264000C5040000F8B5C046F8BC08BC9E4670471102000068260000C8000020B80000000801000000000000000000001F000000080104400801044008010440080104402E
:40268000080104400000FF0F1E1E1E1E1E010000010000001000000001000000040404040400000000366E01C05D0000180000000000E02E01000000000000000000000019
:4026C0000000000000000000000000000000000000000000000000002E26000000000000000000000000000000000000000000000000000000000000000000000000000086
:402700000000000000000000000000000000000000000000000000001801002000000000000000000000000000000000000000000000000000000000000000000000000060
:402740000000000000000000000000000000000000000000000000000000000000000000000000000000000000000000000000000000000000000000000000000000000059
:402780000000000000000000000000000000000000000000000000000000000000000000000000000000000000000000000000000000000000000000000000000000000019
:4027C00000000000000000000000000000000000000000000000000000000000000000000000000000000000000000000000000000000000000000000000000000000000D9
:402800000000000000000000000000000000000000000000000000000000000000000000000000000000000000000000000000000000000000000000000000000000000098
:0200000490303A
:0200000038D9ED
:0200000490402A
:200000000000000000000000000000000000000000000000000000000000000000000000E0
:0200000490501A
:0C000000000204C81193110104D54A6CE1
:0200000490600A
:0100000001FE
:00000001FF