:400000000010002011000000ED050000ED05000010B500F0F3FAC04670B50F4C23688022D20213432360182000F06CFB22680B4B134023600A4A0B4B1A60063A0A4B1A6021
:40004000002525600949092000F028FB092000F019FB074B1D6070BD00010B40FFFFFBFF0600008004010B4008010B40150900000C020B4010B572B600240FE01F48620071
:40008000131959000B00411889881A5AC31858880004104300F0A4FA0134E4B2012CEDD9EE221202164B1A6099231B04154A1360154A1360154A1360154A1360154A11786A
:4000C00006230B43DBB213708322134B1A60134A134B1A600122134B1A60134A134B1A608022134B1A60D8221204124B1A60124A124B1A60FFF790FF10BDC046BC0F0000E0
:400100000C00014000500F4010500F4020500F4030500F4000700F4000000440A40D580008000440000104404C121800080104400002044008020440860D000008030440C0
:4001400010B5064C2378002B07D1054B002B02D0044800E000BF0123237010BD6001002000000000D40D0000084B10B5002B03D00749084800E000BF07480368002B00D1A1
:4001800010BD064B002BFBD09847F9E70000000064010020D40D0000C00000200000000010B5002405E0A200034BD358012098470134022CF7DD10BD380E000070B50025A9
:4001C0001DE0104EAC000620A35998473419E3680020984700240AE0A3000A4AD3189B69984763001B19084AD31858550134032CF2DDAA00034BD358012098470135022D51
:40020000DFDD70BD380E0000C400002010B50B2832D880001A4B1B589F461A4800F0F2FB2AE0194800F0EEFB26E0184800F0EAFB22E0174800F0E6FB1EE0164800F0E2FB53
:400240001AE0154800F0DEFB16E0144800F0DAFB12E0134800F0D6FB0EE0124800F0D2FB0AE0114800F0CEFB06E0104800F0CAFB02E00F4800F0C6FB00F0D2FB10BDC046CB
:40028000D80D0000780E00008C0E0000A00E0000B40E0000C80E0000DC0E0000F00E0000040F0000180F00002C0F0000400F0000540F000010B5002306E0184AD15C184A25
:4002C000D25C914204D10133022BF6DD012300E00023002B15D0134800F094FB00F0A0FB0022114B1A73002000F066FB002000F06FFB002000F078FBFA20800000F0E0F97C
:4003000007E00A4800F07EFB00F08AFB0122064B1A730022014BDA7010BDC0467C010020600E0000680F0000C4000020780F000070B50500002412E0802323412B4203D0A6
:40034000012000F0EFFB02E0002000F0EBFB012000F0DCFB002000F0D9FB0134E4B2072CEAD970BD70B505000C001600072805D9FF20FFF7DDFFFF20FFF7DAFF0120A840AF
:40038000C043C0B2FFF7D4FF002E07D0094B1C1923797F201840FFF7CBFF04E0054B1C192079FFF7C5FF012000F0A4FB002000F0A1FB70BD600E000010B504000B2862D835
:4003C0008300384AD3589F46002201000020FFF7C9FF002000F0F0FA012000F0F9FA012000F002FB5DE0002201000020FFF7BAFF012000F0E1FA002000F0EAFA012000F0BB
:40040000F3FA4EE0002203210020FFF7ABFF002221000020FFF7A6FF012000F0CDFA012000F0D6FA002000F0DFFA3AE0002201000020FFF797FF002000F0BEFA002000F03A
:40044000C7FA012000F0D0FA2BE0002201000020FFF788FF002000F0AFFA012000F0B8FA002000F0C1FA1CE0002201000020FFF779FF012000F0A0FA002000F0A9FA0020A3
:4004800000F0B2FA0DE0002200210820FFF76AFF012000F091FA012000F09AFA012000F0A3FA10BD080E000070B562B6012288210020FFF757FF00F0A3FA00F0B1FA4448EE
:4004C00000F0A0FA00F0ACFA424800F09BFA00F0A7FAFFF765FE002000F06EFA002000F077FA002000F080FAFF26FFF767FE0025002046E06B005B193749CB189B5C002B11
:4005000032D1032D01D1012A0DD0032D01D1002A0BD0032D01D1022A09D06C002C19A2180132D4B204E0002402E00A2400E00B24A6421FD02000FFF769FE274B1B7B002BCE
:400540000CD0264AD378D4540133DBB2D370022B12D9FFF7AFFE260001200FE02000FFF72BFF2600012009E0013200E00022022AC0DD03E0012001E026000120002802D132
:400580000135032DF2DD00281ED1FF2E1CD0124B1B7B002B09D000F00FFA002000F018FA002000F021FAFF260EE0002200210820FFF7D8FE012000F0FFF9012000F008FA33
:4005C000012000F011FAFF26322000F079F88CE7880F0000A00F0000C40000207C01002010B50A00002100F0EDFB10BD10B500F0BDFB03680C2B00D1FEE7FEE770B50F4E0C
:400600000F4D13E029686B68AC68002202E001C901C30432A242FAD1E868002202E0002102C304328242FAD11035013E002EE9D100F0A2FBFFF738FFFEE7C046010000006B
:400640001C10000010B500230AE0032B03D89A000949505800E009489900094A885001332F2BF2D9FFF706FD8022D205116801230B43136010BDC04600000000ED050000FC
:40068000000000201F2318401E3B8340014A13607047C04600E100E001BE704770B504000D001F2802D90020FFF7F6FF1034A40080239B059C4664442068256070BDC0465A
:4006C00010B5040006E0084B586800F039FA074B9C46644480231B029C42F4D8024B9868604300F02DFA10BDD40000200080FFFF10B5034B1B7B584300F022FA10BDC04666
:40070000D4000020F0B557464E46C0B483B0040000F020FA0190E71E2D2F74D83F4B1B78DBB29C4208D83E4B1B78DBB29A463D4B1B78DBB2994631E03B4B1B78DBB29C42EF
:4007400008D83A4B1B78DBB29A46394B1B78DBB2994623E0374B1B78DBB29C4208D8364B1B78DBB29A46354B1B78DBB2994615E0334B1B78DBB29C4208D8324B1B78DBB240
:400780009A46314B1B78DBB2994607E02F4B1B78DBB29A462E4B1B78DBB299462D4BDE5D2F2E09D92A2C07D919222B4B1A60052000F0C6F9192503E0274B1D683F231D4007
:4007C000B54206D9234BDA5D234B1A60052000F0B7F91F4B9C4664442378DBB21F4A13601F4B52461A601F4B4A461A600520FFF77FFFB5420AD2174BDA5D174B1A600520E3
:4008000000F09EF902E00020FFF746FF019800F0A5F903B00CBC91469A46F0BDC0F1FF0FC1F1FF0FC2F1FF0FC3F1FF0FC4F1FF0FC5F1FF0FC6F1FF0FC7F1FF0FC8F1FF0F13
:40084000C9F1FF0FCAF1FF0FCBF1FF0FCCF1FF0FCDF1FF0FC80F00002CFF0B4028FF0B401CFF0B4020FF0B40034B1868C0231B02184000D00120704700010B4010B500F028
:4008800069F9044A1368C02109020B43136000F065F910BD00010B4010B500F05BF908490A68084B1A408024E40122430A600A6813408022120213430B6000F04FF910BDE7
:4008C00000010B40FF3FFFFF70B5050000F042F90400FFF7C9FF002803D0FFF7DDFF012100E0002108482840084A1568084B2B40184310601368012901D1FFF7BFFF20000E
:4009000000F02CF970BDC0460404040010020B40FBFBFBFF10B5244B1B685B0715D5234B1B685B070ED5224BD969042001401F4C22688A432260DA698243DA611B69002B93
:4009400000D098470420FFF7BFFF174B1B685B0518D5164B1B685B0510D5154BD9698022D2001140114802688A430260D969114A0A40DA615B69002B00D098478020C0001C
:40098000FFF7A2FF084B1B685B030CD5074B1B685B0304D5064B9B69002B00D098478020C002FFF791FF10BD10020B40E800002080010020FFFBFFFF04490A68D2B24023F7
:4009C0009A43800118401043086070470001044004490A68D2B204239A43800018401043086070470000044004490A68D2B208239A43C0001840104308607047000004409C
:400A00007047C04670B505000078012404E000F0B7F8285D0134E4B20028F8D170BDC04610B50D2000F0ACF80A2000F0A9F810BD034A136807218B43184310607047C046E7
:400A400008000440044A1368DBB201218B430840184310607047C04600000440034A136838218B43C0001843106070470800044004490A68D2B202239A4340001840104323
:400A80000860704700000440034A136807218B43184310607047C04608010440044A1368DBB201218B430840184310607047C04600010440024B186840080123184070479D
:400AC00004010440024B1868800801231840704704010440024B1868C00801231840704704010440024B186800090123184070470401044004490A68D2B240239A43800175
:400B000018401043086070470002044004490A68D2B240239A438001184010430860704700000440044A1368DBB201218B430840184310607047C046000304400000000036
:400B40000230800804D0C0460138FDD1C046C046C0467047EFF3108072B6704780F310887047C04600000000000000000000000000000000000000000000000000000000F8
:400B8000FEB5494652465B460EB407462E4909688A462E4A12682E48022100F05BF803002A480068C0182A4900F054F806001F3EB346234A126801219140C9430C0001254D
:400BC0000026FFF7C7FF814651460B6823400B6058460430FFF7B4FF3800F040284090400B68234003430B605846FFF7A9FF0136072EF1D900200130012090400B68234048
:400C000003430B6058460630FFF79AFF4846FFF7A5FFC046C046C0460EBC894692469B46FEBDC046C046C046C046C046C046C046C046C046C046C046C046C046C046C046FF
:400C4000F4000020F0000020EC000020E400002000C20100002243088B4274D303098B425FD3030A8B4244D3030B8B4228D3030C8B420DD3FF22090212BA030C8B4202D3C5
:400C80001212090265D0030B8B4219D300E0090AC30B8B4201D3CB03C01A5241830B8B4201D38B03C01A5241430B8B4201D34B03C01A5241030B8B4201D30B03C01A52416E
:400CC000C30A8B4201D3CB02C01A5241830A8B4201D38B02C01A5241430A8B4201D34B02C01A5241030A8B4201D30B02C01A5241CDD2C3098B4201D3CB01C01A5241830983
:400D00008B4201D38B01C01A524143098B4201D34B01C01A524103098B4201D30B01C01A5241C3088B4201D3CB00C01A524183088B4201D38B00C01A524143088B4201D399
:400D40004B00C01A5241411A00D20146524110467047FFE701B5002000F006F802BDC0460029F7D076E770477047C046014B18687047C046580100200E4B70B500251E00B4
:400D80000D4CE41AA410A54204D0AB00F35898470135F8E700F030F9084B00251E00084CE41AA410A54204D0AB00F35898470135F8E770BD041000000410000004100000C0
:400DC0000C10000003008218934202D019700133FAE77047000000001A020000220200002A020000320200003A020000420200004A020000520200005A02000062020000BE
:400E00006A020000720200004A040000C8030000E6030000040400002C0400004A04000068040000C8030000E60300000E0400002C04000068040000310A00005D0A0000DA
:400E4000890A0000450A0000710A00009D0A0000B50A0000C50A0000D50A0000E50A000001020300C0F9A4B0999282F88090BF8883C6A1868E000000427574746F6E203039
:400E8000207072657373656400000000427574746F6E2031207072657373656400000000427574746F6E2032207072657373656400000000427574746F6E2033207072651F
:400EC0007373656400000000427574746F6E2034207072657373656400000000427574746F6E2035207072657373656400000000427574746F6E203620707265737365648E
:400F000000000000427574746F6E2037207072657373656400000000427574746F6E2038207072657373656400000000427574746F6E2039207072657373656400000000F3
:400F4000427574746F6E202A207072657373656400000000427574746F6E202320707265737365640000000041636365737320616C6C6F7765640000416363657373206490
:400F8000656E696564000000536F667477617265205472616E736D697420554152540000456E7465722070617373776F726420746F20756E6C6F636B0000000000300F4054
:400FC000000400400F400004030405060708090A0B0C0E0F101112131415161718191B1C1D1E1F2021222325262728292A2B2E2F3031323334354300F8B5C046F8BC08BCFC
:401000009E4670476901000045060000F8B5C046F8BC08BC9E4670474101000030100000C0000020A00000004000000000000000000000000102030405060708090A000B16
:4010400001000000010000000000E02EC05D00001800000000366E01040404000002044002000000070000000000000000000000000000000000000000000000000000002B
:401080000000000000000000F60F0000000000000000000000000000000000000000000000000000000000000000000000000000000000000000000000000000000000002B
:4010C0000000000000000000F800002000000000000000000000000000000000000000000000000000000000000000000000000000000000000000000000000000000000D8
:4011000000000000000000000000000000000000000000000000000000000000000000000000000000000000000000000000000000000000000000000000000000000000AF
:40114000000000000000000000000000000000000000000000000000000000000000000000000000000000000000000000000000000000000000000000000000000000006F
:40118000000000000000000000000000000000000000000000000000000000000000000000000000000000000000000000000000000000000000000000000000000000002F
:4011C00000000000000000000000000000000000000000000000000000000000000000000000000000000000000000000000000000000000000000000000000000000000EF
:0200000490303A
:020000006A2272
:0200000490402A
:200000000000000000000000000000000000000000000000000000000000000000000000E0
:0200000490501A
:0C000000000204C81193110104CD7BB56F
:0200000490600A
:0100000001FE
:00000001FF