:4000000000100020110000003D0600003D06000010B500F01BFBC04670B50F4C23688022D20213432360182000F094FB22680B4B134023600A4A0B4B1A60063A0A4B1A602E
:40004000002525600949092000F050FB092000F041FB074B1D6070BD00010B40FFFFFBFF0600008004010B4008010B40650900000C020B4010B572B601222B4B1A70002466
:400080000FE02A486200131959000B00411889881A5AC31858880004104300F0C9FA0134E4B2012CEDD921490C312148643000F0A5FAEE2212021F4B1A6099231B041E4A0E
:4000C00013601E4A13601E4A13601E4A136001211D4B196002221D4B1A601D4803783A32934314221343DBB203701A4A107816230343DBB213700322174B1A60174A184B05
:400100001A60184B1960184A184B1A608022184B1A60D8221204174B1A60174A174B1A60FFF77AFF10BDC0461C700F40540D0000D40D00000C00014000500F4010500F4088
:4001400020500F4030500F402000004000800F4001700F4000700F40000004402400180008000440000104404C120000080104400002044008020440860D00000803044011
:4001800010B5064C2378002B07D1054B002B02D0044800E000BF0123237010BD5801002000000000080D0000084B10B5002B03D00749084800E000BF07480368002B00D135
:4001C00010BD064B002BFBD09847F9E7000000005C010020080D0000C000002000000000002304E05A1C0A49885CC8541300062BF8DD084A13780849C85C0549C8710133C4
:40020000DBB21370072B02D90022024B1A707047C4000020740100200C0D000010B5002406E0A300044AD3189B68012098470134022CF6DD10BDC0460C0D000070B5002545
:400240001FE0AB00104CE4180620A368984763690020984700240BE0A3000B4AD3181B6A984763001B19094AD3185B1918720134032CF1DDAB00044AD3189B68012098475F
:400280000135022DDDDD70BD0C0D0000C400002070B50500002412E0802323412B4203D0012000F02BFC02E0002000F027FC012000F018FC002000F015FC0134E4B2072CDD
:4002C000EAD970BD70B50C001500072806D9FF20FFF7DEFFFF20FFF7DBFF1CE001238340D843C0B2FFF7D4FF002D08D00A4B1C193023E35C7F201840FFF7CAFF05E0064B93
:400300001C193023E05CFFF7C3FF012000F0DEFB002000F0DBFB70BD0C0D000010B5114C6078114B195C0022FFF7CCFF63780133DBB26370072B02D900220A4B5A70094A6D
:40034000538801339BB25380F422FF32934207D9044B00225A801B79002B01D1FFF740FF10BDC04674010020C400002070B5002303E01121144AD1540133072BF9DD0026B3
:400380000DE0114D08232B55642000F0C1F911232B55013400E00024072CF2DD0136022EF9DD094B11221A705A70002199700B31D9700639197159719A71DA71FA20C000A0
:4003C00000F0A6F970BDC046C400002010B5002416E00A21154AD154013300E00023072BF7DDC82000F094F9002303E011210F4AD1540133072BF9DDC82000F089F90134A6
:40040000042CEBDD094B11221A700F215970043999700A39D970053119715A719A71DA71FA20C00000F074F910BDC046C400002000B583B004221149443101A800F052FC55
:40044000002307E00E4AD218117A01AAD25C914204D10133032BF5DD012300E00023002B02D0FFF783FF01E0FFF7B0FF044B00221A711A731A7003B000BDC0460C0D00002C
:400480007401002070B562B600F0C8FB574800F063FBFFF7C3FE002306E007221A405449895C544AD1540133072BF6DD0C24FFF7C5FE504BDB7C002B26D10B2C24D04E4B48
:4004C0001B79002B16D14C4B01221A7100221A73002303E01121474AD1540133072BF9DD002303E00A21434AD1540133032BF9DD0B2409E0012B06D102223F4B1A71FFF7D3
:4005000097FF0B2400E00B243A4BDB7C012B02D10B2C00D10134384B1B79012B61D15DE05A00D218334882185218127A1800084325D0002B01D1012923D0002B01D1022934
:4005400021D0012B01D100291FD0012B01D101291DD0012B01D102291BD0022B01D1002919D0022B01D1012917D0022B01D1022915D0032B2BD1012929D1002010E001209C
:400580000EE002200CE003200AE0042008E0052006E0062004E0072002E0082000E00920002A0FD184420DD0134C247B032C08D8114D2E1930720F4E305501342C7304001C
:4005C00000E00400012A02D1844200D10C24013100E000210229A3DD013300E00023032BF7DD0A2000F094F861E7C0461D0300000C0D0000C400002074010020F0B50025CB
:40060000002711E0BB00C658F3B2FF22964308E06A008A181478A419527822700135013BDBB2002BF4D10137072FEBD9F0BDC04610B50A00002100F05EFB10BD10B500F002
:4006400025FB03680C2B00D1FEE7FEE770B50F4E0F4D13E029686B68AC68002202E001C901C30432A242FAD1E868002202E0002102C304328242FAD11035013E002EE9D1F2
:4006800000F00AFBFFF7FEFEFEE7C04601000000AC0E000010B500230AE0032B03D89A000949505800E009489900094A885001332F2BF2D9FFF7DEFC8022D205116801230A
:4006C0000B43136010BDC046000000003D060000000000201F2318401E3B8340014A13607047C04600E100E001BE704770B504000D001F2802D90020FFF7F6FF1034A40050
:4007000080239B059C4664442068256070BDC04610B5040006E0084B586800F091FA074B9C46644480231B029C42F4D8024B9868604300F085FA10BDD80000200080FFFF87
:4007400010B5034B1B7B584300F07AFA10BDC046D8000020F0B557464E46C0B483B0040000F078FA0190E71E2D2F74D83F4B1B78DBB29C4208D83E4B1B78DBB29A463D4B6C
:400780001B78DBB2994631E03B4B1B78DBB29C4208D83A4B1B78DBB29A46394B1B78DBB2994623E0374B1B78DBB29C4208D8364B1B78DBB29A46354B1B78DBB2994615E065
:4007C000334B1B78DBB29C4208D8324B1B78DBB29A46314B1B78DBB2994607E02F4B1B78DBB29A462E4B1B78DBB299462D4BDE5D2F2E09D92A2C07D919222B4B1A60052054
:4008000000F01EFA192503E0274B1D683F231D40B54206D9234BDA5D234B1A60052000F00FFA1F4B9C4664442378DBB21F4A13601F4B52461A601F4B4A461A600520FFF755
:400840007FFFB5420AD2174BDA5D174B1A60052000F0F6F902E00020FFF746FF019800F0FDF903B00CBC91469A46F0BDC0F1FF0FC1F1FF0FC2F1FF0FC3F1FF0FC4F1FF0F4E
:40088000C5F1FF0FC6F1FF0FC7F1FF0FC8F1FF0FC9F1FF0FCAF1FF0FCBF1FF0FCCF1FF0FCDF1FF0F580E00002CFF0B4028FF0B401CFF0B4020FF0B40034B1868C0231B0244
:4008C000184000D00120704700010B4010B500F0C1F9044A1368C02109020B43136000F0BDF910BD00010B4010B500F0B3F908490A68084B1A408024E40122430A600A686D
:4009000013408022120213430B6000F0A7F910BD00010B40FF3FFFFF70B5050000F09AF90400FFF7C9FF002803D0FFF7DDFF012100E0002108482840084A1568084B2B4064
:40094000184310601368012901D1FFF7BFFF200000F084F970BDC0460404040010020B40FBFBFBFF10B5244B1B685B0715D5234B1B685B070ED5224BD969042001401F4CB0
:4009800022688A432260DA698243DA611B69002B00D098470420FFF7BFFF174B1B685B0518D5164B1B685B0510D5154BD9698022D2001140114802688A430260D969114A94
:4009C0000A40DA615B69002B00D098478020C000FFF7A2FF084B1B685B030CD5074B1B685B0304D5064B9B69002B00D098478020C002FFF791FF10BD10020B40EC0000206F
:400A000084010020FFFBFFFF034A136807218B43184310607047C04608000440044A1368DBB201218B430840184310607047C04600000440034A136838218B43C000184323
:400A4000106070470800044004490A68D2B202239A434000184010430860704700000440034A136807218B43184310607047C04608010440044A1368DBB201218B4308404F
:400A8000184310607047C04600010440024B1868400801231840704704010440024B1868800801231840704704010440024B1868C00801231840704704010440024B186829
:400AC00000090123184070470401044004490A68D2B240239A43800118401043086070470002044004490A68D2B240239A438001184010430860704700000440044A136882
:400B0000DBB201218B430840184310607047C04600030440014B18647047C0460000002010B5040000F096F8044A1368C0218B43A4011C43146000F091F810BD00E400E03B
:400B40000122014B1A60704700E100E00122014B1A60704780E100E010B50400FFF7F6FF2000FFF7D7FF0320FFF7DAFFFFF7E8FF10BDC046034A117880235B420B43DBB200
:400B80001370704771000F40014B18707047C04682000F40014B1878C0B2704762000F4010B50100014800F05DF810BD20000F4010B5024800F060F810BDC04640000F40DA
:400BC00010B50100014800F04DF810BD00000F4010B501E0FFF7ECFFFFF7DCFF0307F9D410BDC04610B50B4C2000FFF7D9FF2000FFF7E6FF00F02EF8074A117810230B431D
:400C0000DBB2137000F02AF8FFF7E2FF0020FFF7BBFF10BDBF5D000092000F4010B5064B1B78002B04D1FFF7DDFF0122024B1A70FFF7A0FF10BDC046A4010020000000007F
:400C40000230800804D0C0460138FDD1C046C046C0467047EFF3108072B6704780F310887047C046CBB203700B0ADBB24370090CC9B281707047C0460378427812021A43CE
:400C800083781B041A4310007047C046014B18687047C046500100200E4B70B500251E000D4CE41AA410A54204D0AB00F35898470135F8E700F0E8F8084B00251E00084CCB
:400CC000E41AA410A54204D0AB00F35898470135F8E770BD940E0000940E0000940E00009C0E0000002310B59A4203D0CC5CC4540133F9E710BD03008218934202D019705B
:400D00000133FAE77047000000000000080B0C0D0E0F0A11090A0000350A0000610A00001D0A0000490A0000750A00008D0A00009D0A0000AD0A0000BD0A0000C0F9A4B004
:400D4000999282F88090BF8883C6A1868EFF00000102030400300F40000400400F400004820D405149FF4AFF4BFF4F0150185A045D095F016040624064406540668068802A
:400D80006A806C806E80C041C9FFCAFFCBFFCD83CE03CF01D018D280DA04DB04DD99DF01E040E240E440E540E680E880EA80EC80EE80420246824801740176807780D09819
:400DC000D2080E012E01300136013E01404145EC4720482349FF4AFF4BFF4D834E034F015018540158045A045B045C095D995F016040624064406540668068806A806C80A4
:400E00006E80060217801E801F8046824D044F0156025D045E805F0187809A809B809E02C080C480D090D6D06F20DA808720A720E61002011101000001000F4028300F40C9
:400E400008310F4020320F4013330F4002400F4003410F4002600F40030405060708090A0B0C0E0F101112131415161718191B1C1D1E1F2021222325262728292A2B2E2F1E
:400E80003031323334354300F8B5C046F8BC08BC9E467047A901000095060000F8B5C046F8BC08BC9E46704781010000C00E0000C0000020980000005000000000000000D7
:400EC0000000000007060504030201000102030405060708090A000B010000000000E02EC05D00001800000000366E0104040400000000000000000000000000000000009F
:400F000000000000000000000000000000000000860E000000000000000000000000000000000000000000000000000000000000000000000000000000000000000000001D
:400F400000000000000000000000000000000000F0000020000000000000000000000000000000000000000000000000000000000000000000000000000000000000000061
:400F80000000000000000000000000000000000000000000000000000000000000000000000000000000000000000000000000000000000000000000000000000000000031
:400FC00000000000000000000000000000000000000000000000000000000000000000000000000000000000000000000000000000000000000000000000000000000000F1
:4010000000000000000000000000000000000000000000000000000000000000000000000000000000000000000000000000000000000000000000000000000000000000B0
:401040000000000000000000000000000000000000000000000000000000000000000000000000000000000000000000000000000000000000000000000000000000000070
:0200000490303A
:02000000F50BFE
:0200000490402A
:200000000000000000000000000000000000000000000000000000000000000000000000E0
:0200000490501A
:0C000000000204C81193110104CD069EFB
:0200000490600A
:0100000001FE
:00000001FF